{
  "_format": "hh-sol-artifact-1",
  "contractName": "BookDatabase",
  "sourceName": "contracts/BooksDatabase.sol",
  "abi": [
    {
      "inputs": [],
      "stateMutability": "nonpayable",
      "type": "constructor"
    },
    {
      "inputs": [
        {
          "internalType": "uint32",
          "name": "",
          "type": "uint32"
        }
      ],
      "name": "books",
      "outputs": [
        {
          "internalType": "string",
          "name": "title",
          "type": "string"
        },
        {
          "internalType": "string",
          "name": "author",
          "type": "string"
        }
      ],
      "stateMutability": "view",
      "type": "function"
    },
    {
      "inputs": [
        {
          "internalType": "uint32",
          "name": "id",
          "type": "uint32"
        }
      ],
      "name": "destroy",
      "outputs": [],
      "stateMutability": "nonpayable",
      "type": "function"
    },
    {
      "inputs": [
        {
          "internalType": "uint32",
          "name": "id",
          "type": "uint32"
        },
        {
          "components": [
            {
              "internalType": "string",
              "name": "title",
              "type": "string"
            },
            {
              "internalType": "string",
              "name": "author",
              "type": "string"
            }
          ],
          "internalType": "struct BookDatabase.Book",
          "name": "newBook",
          "type": "tuple"
        }
      ],
      "name": "edit",
      "outputs": [],
      "stateMutability": "nonpayable",
      "type": "function"
    },
    {
      "inputs": [
        {
          "components": [
            {
              "internalType": "string",
              "name": "title",
              "type": "string"
            },
            {
              "internalType": "string",
              "name": "author",
              "type": "string"
            }
          ],
          "internalType": "struct BookDatabase.Book",
          "name": "newBook",
          "type": "tuple"
        }
      ],
      "name": "insert",
      "outputs": [],
      "stateMutability": "nonpayable",
      "type": "function"
    },
    {
      "inputs": [],
      "name": "totalBooks",
      "outputs": [
        {
          "internalType": "uint256",
          "name": "",
          "type": "uint256"
        }
      ],
      "stateMutability": "view",
      "type": "function"
    }
  ],
  "bytecode": "0x60a060405260008060006101000a81548163ffffffff021916908363ffffffff160217905550348015603057600080fd5b503373ffffffffffffffffffffffffffffffffffffffff1660808173ffffffffffffffffffffffffffffffffffffffff1681525050608051610fca61008060003960006101180152610fca6000f3fe608060405234801561001057600080fd5b50600436106100575760003560e01c80634a6f15451461005c57806368d748ca146100785780636dd6e46d146100a95780636ec4f4bf146100c55780639564f0d2146100e3575b600080fd5b610076600480360381019061007191906107c4565b6100ff565b005b610092600480360381019061008d91906107c4565b6102b2565b6040516100a0929190610881565b60405180910390f35b6100c360048036038101906100be9190610a7f565b6103e6565b005b6100cd6104a1565b6040516100da9190610ae1565b60405180910390f35b6100fd60048036038101906100f89190610afc565b6104a7565b005b3373ffffffffffffffffffffffffffffffffffffffff167f000000000000000000000000000000000000000000000000000000000000000073ffffffffffffffffffffffffffffffffffffffff161461018d576040517f08c379a000000000000000000000000000000000000000000000000000000000815260040161018490610bca565b60405180910390fd5b610250600260008363ffffffff1663ffffffff16815260200190815260200160002060000180546101bd90610c19565b80601f01602080910402602001604051908101604052809291908181526020018280546101e990610c19565b80156102365780601f1061020b57610100808354040283529160200191610236565b820191906000526020600020905b81548152906001019060200180831161021957829003601f168201915b5050505050604051806020016040528060008152506106e4565b6102af57600260008263ffffffff1663ffffffff168152602001908152602001600020600080820160006102849190610717565b6001820160006102949190610717565b5050600160008154809291906102a990610c79565b91905055505b50565b60026020528060005260406000206000915090508060000180546102d590610c19565b80601f016020809104026020016040519081016040528092919081815260200182805461030190610c19565b801561034e5780601f106103235761010080835404028352916020019161034e565b820191906000526020600020905b81548152906001019060200180831161033157829003601f168201915b50505050509080600101805461036390610c19565b80601f016020809104026020016040519081016040528092919081815260200182805461038f90610c19565b80156103dc5780601f106103b1576101008083540402835291602001916103dc565b820191906000526020600020905b8154815290600101906020018083116103bf57829003601f168201915b5050505050905082565b60008081819054906101000a900463ffffffff168092919061040790610ca2565b91906101000a81548163ffffffff021916908363ffffffff1602179055505080600260008060009054906101000a900463ffffffff1663ffffffff1663ffffffff168152602001908152602001600020600082015181600001908161046c9190610e7a565b5060208201518160010190816104829190610e7a565b509050506001600081548092919061049990610f4c565b919050555050565b60015481565b6000600260008463ffffffff1663ffffffff1681526020019081526020016000206040518060400160405290816000820180546104e390610c19565b80601f016020809104026020016040519081016040528092919081815260200182805461050f90610c19565b801561055c5780601f106105315761010080835404028352916020019161055c565b820191906000526020600020905b81548152906001019060200180831161053f57829003601f168201915b5050505050815260200160018201805461057590610c19565b80601f01602080910402602001604051908101604052809291908181526020018280546105a190610c19565b80156105ee5780601f106105c3576101008083540402835291602001916105ee565b820191906000526020600020905b8154815290600101906020018083116105d157829003601f168201915b505050505081525050905061060b816000015183600001516106e4565b15801561063257506106308260000151604051806020016040528060008152506106e4565b155b1561066c578160000151600260008563ffffffff1663ffffffff168152602001908152602001600020600001908161066a9190610e7a565b505b61067e816020015183602001516106e4565b1580156106a557506106a38260200151604051806020016040528060008152506106e4565b155b156106df578160200151600260008563ffffffff1663ffffffff16815260200190815260200160002060010190816106dd9190610e7a565b505b505050565b60008083905060008390508051825114801561070d575080805190602001208280519060200120145b9250505092915050565b50805461072390610c19565b6000825580601f106107355750610754565b601f0160209004906000526020600020908101906107539190610757565b5b50565b5b80821115610770576000816000905550600101610758565b5090565b6000604051905090565b600080fd5b600080fd5b600063ffffffff82169050919050565b6107a181610788565b81146107ac57600080fd5b50565b6000813590506107be81610798565b92915050565b6000602082840312156107da576107d961077e565b5b60006107e8848285016107af565b91505092915050565b600081519050919050565b600082825260208201905092915050565b60005b8381101561082b578082015181840152602081019050610810565b60008484015250505050565b6000601f19601f8301169050919050565b6000610853826107f1565b61085d81856107fc565b935061086d81856020860161080d565b61087681610837565b840191505092915050565b6000604082019050818103600083015261089b8185610848565b905081810360208301526108af8184610848565b90509392505050565b600080fd5b7f4e487b7100000000000000000000000000000000000000000000000000000000600052604160045260246000fd5b6108f582610837565b810181811067ffffffffffffffff82111715610914576109136108bd565b5b80604052505050565b6000610927610774565b905061093382826108ec565b919050565b600080fd5b600080fd5b600080fd5b600067ffffffffffffffff821115610962576109616108bd565b5b61096b82610837565b9050602081019050919050565b82818337600083830152505050565b600061099a61099584610947565b61091d565b9050828152602081018484840111156109b6576109b5610942565b5b6109c1848285610978565b509392505050565b600082601f8301126109de576109dd61093d565b5b81356109ee848260208601610987565b91505092915050565b600060408284031215610a0d57610a0c6108b8565b5b610a17604061091d565b9050600082013567ffffffffffffffff811115610a3757610a36610938565b5b610a43848285016109c9565b600083015250602082013567ffffffffffffffff811115610a6757610a66610938565b5b610a73848285016109c9565b60208301525092915050565b600060208284031215610a9557610a9461077e565b5b600082013567ffffffffffffffff811115610ab357610ab2610783565b5b610abf848285016109f7565b91505092915050565b6000819050919050565b610adb81610ac8565b82525050565b6000602082019050610af66000830184610ad2565b92915050565b60008060408385031215610b1357610b1261077e565b5b6000610b21858286016107af565b925050602083013567ffffffffffffffff811115610b4257610b41610783565b5b610b4e858286016109f7565b9150509250929050565b7f4f6e6c792061646d696e6973747261746f722063616e2064656c65746520612060008201527f626f6f6b00000000000000000000000000000000000000000000000000000000602082015250565b6000610bb46024836107fc565b9150610bbf82610b58565b604082019050919050565b60006020820190508181036000830152610be381610ba7565b9050919050565b7f4e487b7100000000000000000000000000000000000000000000000000000000600052602260045260246000fd5b60006002820490506001821680610c3157607f821691505b602082108103610c4457610c43610bea565b5b50919050565b7f4e487b7100000000000000000000000000000000000000000000000000000000600052601160045260246000fd5b6000610c8482610ac8565b915060008203610c9757610c96610c4a565b5b600182039050919050565b6000610cad82610788565b915063ffffffff8203610cc357610cc2610c4a565b5b600182019050919050565b60008190508160005260206000209050919050565b60006020601f8301049050919050565b600082821b905092915050565b600060088302610d307fffffffffffffffffffffffffffffffffffffffffffffffffffffffffffffffff82610cf3565b610d3a8683610cf3565b95508019841693508086168417925050509392505050565b6000819050919050565b6000610d77610d72610d6d84610ac8565b610d52565b610ac8565b9050919050565b6000819050919050565b610d9183610d5c565b610da5610d9d82610d7e565b848454610d00565b825550505050565b600090565b610dba610dad565b610dc5818484610d88565b505050565b5b81811015610de957610dde600082610db2565b600181019050610dcb565b5050565b601f821115610e2e57610dff81610cce565b610e0884610ce3565b81016020851015610e17578190505b610e2b610e2385610ce3565b830182610dca565b50505b505050565b600082821c905092915050565b6000610e5160001984600802610e33565b1980831691505092915050565b6000610e6a8383610e40565b9150826002028217905092915050565b610e83826107f1565b67ffffffffffffffff811115610e9c57610e9b6108bd565b5b610ea68254610c19565b610eb1828285610ded565b600060209050601f831160018114610ee45760008415610ed2578287015190505b610edc8582610e5e565b865550610f44565b601f198416610ef286610cce565b60005b82811015610f1a57848901518255600182019150602085019450602081019050610ef5565b86831015610f375784890151610f33601f891682610e40565b8355505b6001600288020188555050505b505050505050565b6000610f5782610ac8565b91507fffffffffffffffffffffffffffffffffffffffffffffffffffffffffffffffff8203610f8957610f88610c4a565b5b60018201905091905056fea264697066735822122000a86e2ce1e4786a93f38dca90d227699868668cd7eb202cfeaa4a4b4a45285a64736f6c634300081b0033",
  "linkReferences": {},
  "deployedLinkReferences": {}
}